:100000000C9434000C9446000C9446000C9446006A
:100010000C9446000C9446000C9446000C94460048
:100020000C9446000C9446000C9446000C94460038
:100030000C9446000C9446000C946E000C94460000
:100040000C9446000C9446000C9446000C94460018
:100050000C9446000C9446000C9446000C94460008
:100060000C9446000C94460011241FBECFEFD8E03C
:10007000DEBFCDBF21E0A0E0B1E001C01D92A13004
:10008000B207E1F70E9459000C9483000C94000021
:1000900084B1816084B9ECE6F0E080818062808385
:1000A000E8E6F0E080818260808387B18F7D87B948
:1000B00008950E9448000E945E00FFCF84B58260D0
:1000C00084BD89EF87BDEEE6F0E0808182608083A9
:1000D00085B5826085BD1092000108951F920F9230
:1000E0000FB60F9211248F93809100018F3F11F072
:1000F0008F5F01C080E0809300018F910F900FBE51
:0A0100000F901F901895F894FFCFA0
:00000001FF
