S0160000466C6173685F56657269666965722E7372656385
S11300000C9435000C9452000C9452000C94520041
S11300100C9400010C9452000C9452000C94520065
S11300200C9452000C9452000C9452000C94F30162
S11300300C9452000C9452000C94CD010C94520078
S11300400C9452000C9452000C9452000C945200E4
S11300500C9452000C9452000C9452000C945200D4
S11300600C9452000C945200F50111241FBECFEFE2
S1130070D8E0DEBFCDBF21E0A0E0B1E001C01D9219
S1130080A230B207E1F710E0C5E3D0E004C0219745
S1130090FE010E94FC01C433D107C9F70E94480144
S11300A00C9402020C9400000E94500108951F93C6
S11300B0CF93DF93142FD52FC62F0E945701812F82
S11300C00E9457018D2F0E9457018C2F0E945701C7
S11300D0DF91CF911F910895CF92DF92EF92FF921B
S11300E06115710520E28207910580F46B017C01A2
S11300F00E946301B701A60183E00E9457000E9499
S11301005C01F82E0E9467018F2D01C08FEFFF90D4
S1130110EF90DF90CF900895CF92DF92EF92FF920D
S1130120CF936115710520E282079105F8F4C42F7D
S11301306B017C010E94630186E00E945701B701B4
S1130140A60182E00E9457008C2F0E9457010E9452
S11301506701C701B6010E946C00C81739F080E03E
S113016091E00E94B301F8940E94E700CF91FF90C0
S1130170EF90DF90CF90089584B1816084B984B109
S1130180826084B9ECE6F0E0808180628083E8E6F6
S1130190F0E080818260808387B18F7D87B9089584
S11301A095B121E030E002C0220F331F8A95E2F7B7
S11301B0292B25B9089595B121E030E002C0220F22
S11301C0331F8A95E2F72095292325B9089581E004
S11301D00E94D0002FEF81EE94E0215080409040A7
S11301E0E1F700C0000081E00E94DB002FEF81EE08
S11301F094E0215080409040E1F700C00000E7CF38
S11302001F920F920FB60F9211242F933F934F9387
S11302105F936F937F938F939F93AF93BF93CF938A
S1130220DF93EF93FF93459B20C06FEE7EEB80E05E
S113023090E00E946C00D82F80E091E00E94CA01F7
S1130240C82F8D2F8C0F8D1710F08C1720F480E0A1
S11302500E94D00003C080E00E94DB004C2F6FEEB0
S11302607EEB80E090E00E948C00FF91EF91DF91A3
S1130270CF91BF91AF919F918F917F916F915F913A
S11302804F913F912F910F900FBE0F901F90189593
S11302900E94BC000E9450010E9454007894FFCF39
S11302A084B1886284B98CB581658CBD08958EBD96
S11302B00DB407FEFDCF08958FEF8EBD0DB407FE7C
S11302C0FDCF8EB5089584B18B7F84B9089584B130
S11302D0846084B90895DC016C93611110C024B565
S11302E0226024BD2AEF27BDEEE6F0E020812260E3
S11302F0208311961C9285B5826085BD0895E0E83F
S1130300F0E020812083E1E8F0E020812860208370
S113031024EF31E03093890020938800AFE6B0E009
S11303202C9122602C93DC0111961C9280818260B6
S113033080830895CF93DF9300D0CDB7DEB760E01C
S1130340CE0101960E946B010F900F90DF91CF9127
S11303500895019739F46F3F7F4F21F480E091E0D5
S11303600E949A010895FC018081811104C085B521
S11303708D7F85BD0895E1E8F0E080818D7F8083E5
S11303800895FC0191819F3F11F09F5F01C090E0AF
S113039091830895FC01818108951F920F920FB6F5
S11303A00F9211242F933F934F935F936F937F93F7
S11303B08F939F93AF93BF93EF93FF9380E091E06C
S11303C00E94C101FF91EF91BF91AF919F918F91D5
S11303D07F916F915F914F913F912F910F900FBE3D
S11303E00F901F9018950C94CD016FEF7FEF81E073
S11303F090E00E94A9010895EE0FFF1F0590F4916B
S10B0400E02D0994F894FFCFEC
S9030000FC
