:100000000C9434000C9446000C9446000C9446006A
:100010000C94F2000C9446000C9446000C9446009C
:100020000C9446000C9446000C9446000C94460038
:100030000C9446000C9446000C946D010C94460000
:100040000C9446000C9446000C9446000C94460018
:100050000C9446000C9446000C9446000C94460008
:100060000C9446000C94460011241FBECFEFD8E03C
:10007000DEBFCDBF21E0A0E0B1E001C01D92A13004
:10008000B207E1F70E9434010C9482010C94000045
:100090000E943E0108951F93CF93DF93142FD52F15
:1000A000C62F0E944501812F0E9445018D2F0E947D
:1000B00045018C2F0E944501DF91CF911F9108953A
:1000C000CF92DF92EF92FF926115710520E28207D5
:1000D000910580F46B017C010E945101B701A601DA
:1000E00083E00E944B000E944A01F82E0E945501B5
:1000F0008F2D01C08FEFFF90EF90DF90CF9008958C
:10010000CF92DF92EF92FF92CF936115710520E2BB
:1001100082079105E8F4C42F6B017C010E94510114
:1001200086E00E944501B701A60182E00E944B00D3
:100130008C2F0E9445010E945501C701B6010E9403
:100140006000C81729F00E946901F8940E94D90044
:10015000CF91FF90EF90DF90CF90089584B18160B0
:1001600084B984B1826084B9ECE6F0E08081806279
:100170008083E8E6F0E080818260808387B18F7DB4
:1001800087B9089595B121E030E002C0220F331FF6
:100190008A95E2F7292B25B9089595B121E030E041
:1001A00002C0220F331F8A95E2F72095292325B933
:1001B000089581E00E94C2002FEF81EE94E021506B
:1001C00080409040E1F700C0000081E00E94CD0037
:1001D0002FEF81EE94E0215080409040E1F700C085
:1001E0000000E7CF1F920F920FB60F9211242F93AA
:1001F0003F934F935F936F937F938F939F93AF93AF
:10020000BF93CF93EF93FF93459B1CC06FEE7EEBA4
:1002100080E090E00E946000C0910001982F9C0F48
:10022000981710F09C1720F480E00E94C20003C0D1
:1002300080E00E94CD004C2F6FEE7EEB80E090E0DE
:100240000E948000FF91EF91CF91BF91AF919F915C
:100250008F917F916F915F914F913F912F910F906F
:100260000FBE0F901F9018950E94AE000E9459017A
:100270000E943E010E9448007894FFCF84B18862BA
:1002800084B98CB581658CBD08958EBD0DB407FE13
:10029000FDCF08958FEF8EBD0DB407FEFDCF8EB557
:1002A000089584B18B7F84B9089584B1846084B942
:1002B000089584B5826084BD89EF87BDEEE6F0E0E5
:1002C00080818260808385B5826085BD1092000147
:1002D000089585B58D7F85BD08951F920F920FB645
:1002E0000F9211248F93809100018F3F11F08F5F47
:1002F00001C080E0809300018F910F900FBE0F909E
:080300001F901895F894FFCF3F
:00000001FF
