S0160000466C6173685F56657269666965722E7372656385
S11300000C9434000C9446000C9446000C94460066
S11300100C94F4000C9446000C9446000C94460096
S11300200C9446000C9446000C9446000C94460034
S11300300C9446000C9446000C9484010C944600E5
S11300400C9446000C9446000C9446000C94460014
S11300500C9446000C9446000C9446000C94460004
S11300600C9446000C94460011241FBECFEFD8E038
S1130070DEBFCDBF21E0A0E0B1E001C01D92A13000
S1130080B207E1F70E943C010C94AA010C94000011
S11300900E94480108951F93CF93DF93142FD52F07
S11300A0C62F0E944F01812F0E944F018D2F0E9465
S11300B04F018C2F0E944F01DF91CF911F91089522
S11300C0CF92DF92EF92FF926115710520E28207D1
S11300D0910580F46B017C010E945B01B701A601CC
S11300E083E00E944B000E945401F82E0E945F019D
S11300F08F2D01C08FEFFF90EF90DF90CF90089588
S1130100CF92DF92EF92FF92CF936115710520E2B7
S113011082079105F8F4C42F6B017C010E945B01F6
S113012086E00E944F01B701A60182E00E944B00C5
S11301308C2F0E944F010E945F01C701B6010E94EB
S11301406000C81739F080E091E00E947301F894D0
S11301500E94DB00CF91FF90EF90DF90CF90089545
S113016084B1816084B984B1826084B9ECE6F0E042
S1130170808180628083E8E6F0E080818260808311
S113018087B18F7D87B9089595B121E030E002C031
S1130190220F331F8A95E2F7292B25B9089595B1CB
S11301A021E030E002C0220F331F8A95E2F7209548
S11301B0292325B9089581E00E94C4002FEF81EE20
S11301C094E0215080409040E1F700C0000081E0BD
S11301D00E94CF002FEF81EE94E0215080409040A8
S11301E0E1F700C00000E7CF1F920F920FB60F9205
S11301F011242F933F934F935F936F937F938F9328
S11302009F93AF93BF93CF93DF93EF93FF93459B5C
S113021020C06FEE7EEB80E090E00E946000D82F5B
S113022080E091E00E948101C82F8D2F8C0F8D17E3
S113023010F08C1720F480E00E94C40003C080E01A
S11302400E94CF004C2F6FEE7EEB80E090E00E9486
S11302508000FF91EF91DF91CF91BF91AF919F917A
S11302608F917F916F915F914F913F912F910F905B
S11302700FBE0F901F9018950E94B00080E091E08F
S11302800E9463010E9448010E9448007894FFCFB5
S113029084B1886284B98CB581658CBD08958EBDA6
S11302A00DB407FEFDCF08958FEF8EBD0DB407FE8C
S11302B0FDCF8EB5089584B18B7F84B9089584B140
S11302C0846084B90895DC0194B5926094BD89EF8B
S11302D087BDEEE6F0E090819260908395B59260E0
S11302E095BD1C92089585B58D7F85BD0895809137
S11302F000018F3F11F08F5F01C080E08093000107
S11303000895FC01808108951F920F920FB60F92F9
S113031011242F933F934F935F936F937F938F9306
S11303209F93AF93BF93EF93FF9380E091E00E947C
S11303307701FF91EF91BF91AF919F918F917F9141
S11303406F915F914F913F912F910F900FBE0F903E
S10B03501F901895F894FFCFEB
S9030000FC
